{
  "contractName": "ProjectFactory",
  "abi": [
    {
      "anonymous": false,
      "inputs": [
        {
          "indexed": false,
          "internalType": "address",
          "name": "projectCreator",
          "type": "address"
        },
        {
          "indexed": false,
          "internalType": "address",
          "name": "projectAddress",
          "type": "address"
        },
        {
          "indexed": false,
          "internalType": "string",
          "name": "projectName",
          "type": "string"
        },
        {
          "indexed": false,
          "internalType": "string",
          "name": "projectDescription",
          "type": "string"
        },
        {
          "indexed": false,
          "internalType": "uint256",
          "name": "projectDeadline",
          "type": "uint256"
        },
        {
          "indexed": false,
          "internalType": "uint256",
          "name": "projectAmountToBeRasied",
          "type": "uint256"
        },
        {
          "indexed": false,
          "internalType": "string",
          "name": "phoneNumber",
          "type": "string"
        }
      ],
      "name": "ProjectCreated",
      "type": "event"
    },
    {
      "inputs": [
        {
          "internalType": "uint256",
          "name": "",
          "type": "uint256"
        }
      ],
      "name": "allProjects",
      "outputs": [
        {
          "internalType": "contract Project",
          "name": "",
          "type": "address"
        }
      ],
      "stateMutability": "view",
      "type": "function",
      "constant": true
    },
    {
      "inputs": [],
      "name": "numProjects",
      "outputs": [
        {
          "internalType": "uint256",
          "name": "",
          "type": "uint256"
        }
      ],
      "stateMutability": "view",
      "type": "function",
      "constant": true
    },
    {
      "inputs": [
        {
          "internalType": "address",
          "name": "",
          "type": "address"
        }
      ],
      "name": "numberOfProjectsPerOwner",
      "outputs": [
        {
          "internalType": "uint256",
          "name": "",
          "type": "uint256"
        }
      ],
      "stateMutability": "view",
      "type": "function",
      "constant": true
    },
    {
      "inputs": [
        {
          "internalType": "address",
          "name": "",
          "type": "address"
        }
      ],
      "name": "projectOwners",
      "outputs": [
        {
          "internalType": "address",
          "name": "",
          "type": "address"
        }
      ],
      "stateMutability": "view",
      "type": "function",
      "constant": true
    },
    {
      "inputs": [],
      "name": "getAllTheProjects",
      "outputs": [
        {
          "internalType": "contract Project[]",
          "name": "",
          "type": "address[]"
        }
      ],
      "stateMutability": "view",
      "type": "function",
      "constant": true
    },
    {
      "inputs": [
        {
          "internalType": "address",
          "name": "_owner",
          "type": "address"
        }
      ],
      "name": "getOwnerProjects",
      "outputs": [
        {
          "internalType": "address[]",
          "name": "",
          "type": "address[]"
        }
      ],
      "stateMutability": "view",
      "type": "function",
      "constant": true
    },
    {
      "inputs": [
        {
          "internalType": "address",
          "name": "_owner",
          "type": "address"
        }
      ],
      "name": "getNotOwnerProjects",
      "outputs": [
        {
          "internalType": "address[]",
          "name": "",
          "type": "address[]"
        }
      ],
      "stateMutability": "view",
      "type": "function",
      "constant": true
    },
    {
      "inputs": [
        {
          "internalType": "string",
          "name": "projectName",
          "type": "string"
        },
        {
          "internalType": "string",
          "name": "projectDesciption",
          "type": "string"
        },
        {
          "internalType": "uint256",
          "name": "duration",
          "type": "uint256"
        },
        {
          "internalType": "uint256",
          "name": "amountToBeRaised",
          "type": "uint256"
        },
        {
          "internalType": "string",
          "name": "phoneNumber",
          "type": "string"
        }
      ],
      "name": "createProject",
      "outputs": [],
      "stateMutability": "nonpayable",
      "type": "function"
    }
  ],
  "bytecode": "0x608060405234801561001057600080fd5b50611dd1806100206000396000f3fe60806040523480156200001157600080fd5b5060043610620000b0576000357c0100000000000000000000000000000000000000000000000000000000900480638e1b0b36116200007f5780638e1b0b361462000137578063c8d6bfa1146200015a578063dd3f95bc1462000171578063e234a1b7146200018a57600080fd5b8063246f220b14620000b557806341fea64214620000e457806353b3194c14620000ee5780635a067baa146200011e575b600080fd5b620000cc620000c63660046200068b565b620001b6565b604051620000db9190620006bd565b60405180910390f35b620000cc6200030e565b62000105620000ff3660046200070c565b62000372565b604051600160a060020a039091168152602001620000db565b6200012860015481565b604051908152602001620000db565b62000128620001483660046200068b565b60036020526000908152604090205481565b620000cc6200016b3660046200068b565b6200039d565b620001886200018236600462000772565b620004f9565b005b620001056200019b3660046200068b565b600260205260009081526040902054600160a060020a031681565b600160a060020a0381166000908152600360205260408120546060919067ffffffffffffffff811115620001ee57620001ee62000829565b60405190808252806020026020018201604052801562000218578160200160208202803683370190505b5090506000805b600154811015620003055784600160a060020a0316600260008084815481106200024d576200024d62000858565b6000918252602080832090910154600160a060020a039081168452908301939093526040909101902054161415620002f0576000818154811062000295576200029562000858565b9060005260206000200160009054906101000a9004600160a060020a0316838381518110620002c857620002c862000858565b600160a060020a039092166020928302919091019091015281620002ec81620008b6565b9250505b80620002fc81620008b6565b9150506200021f565b50909392505050565b606060008054806020026020016040519081016040528092919081815260200182805480156200036857602002820191906000526020600020905b8154600160a060020a0316815260019091019060200180831162000349575b5050505050905090565b600081815481106200038357600080fd5b600091825260209091200154600160a060020a0316905081565b600160a060020a03811660009081526003602052604081205460015460609291620003c891620008d4565b67ffffffffffffffff811115620003e357620003e362000829565b6040519080825280602002602001820160405280156200040d578160200160208202803683370190505b5090506000805b600154811015620003055784600160a060020a03166002600080848154811062000442576200044262000858565b6000918252602080832090910154600160a060020a0390811684529083019390935260409091019020541614620004e4576000818154811062000489576200048962000858565b9060005260206000200160009054906101000a9004600160a060020a0316838381518110620004bc57620004bc62000858565b600160a060020a039092166020928302919091019091015281620004e081620008b6565b9250505b80620004f081620008b6565b91505062000414565b60006200050885600a620008ee565b62000514904262000910565b905060003382868c8c8c8c8a8a6040516200052f906200067d565b620005439998979695949392919062000954565b604051809103906000f08015801562000560573d6000803e3d6000fd5b5060008054600180820183558280527f290decd9548b62a8d60345a988386fc84ba6bc95484008f6362f93160ef3e563909101805473ffffffffffffffffffffffffffffffffffffffff1916600160a060020a038516179055805492935090620005ca83620008b6565b9091555050600160a060020a0381166000908152600260209081526040808320805473ffffffffffffffffffffffffffffffffffffffff1916339081179091558352600390915281208054916200062183620008b6565b91905055507fdb9cf04cc690c9da3d2a94017b1e118d6472169a963210c233ac3a44e6c8690633828c8c8c8c888c8c8c604051620006699a99989796959493929190620009c1565b60405180910390a150505050505050505050565b6113628062000a3a83390190565b6000602082840312156200069e57600080fd5b8135600160a060020a0381168114620006b657600080fd5b9392505050565b6020808252825182820181905260009190848201906040850190845b8181101562000700578351600160a060020a031683529284019291840191600101620006d9565b50909695505050505050565b6000602082840312156200071f57600080fd5b5035919050565b60008083601f8401126200073957600080fd5b50813567ffffffffffffffff8111156200075257600080fd5b6020830191508360208285010111156200076b57600080fd5b9250929050565b60008060008060008060008060a0898b0312156200078f57600080fd5b883567ffffffffffffffff80821115620007a857600080fd5b620007b68c838d0162000726565b909a50985060208b0135915080821115620007d057600080fd5b620007de8c838d0162000726565b909850965060408b0135955060608b0135945060808b01359150808211156200080657600080fd5b50620008158b828c0162000726565b999c989b5096995094979396929594505050565b7f4e487b7100000000000000000000000000000000000000000000000000000000600052604160045260246000fd5b7f4e487b7100000000000000000000000000000000000000000000000000000000600052603260045260246000fd5b7f4e487b7100000000000000000000000000000000000000000000000000000000600052601160045260246000fd5b6000600019821415620008cd57620008cd62000887565b5060010190565b600082821015620008e957620008e962000887565b500390565b60008160001904831182151516156200090b576200090b62000887565b500290565b6000821982111562000926576200092662000887565b500190565b81835281816020850137506000828201602090810191909152601f909101601f19169091010190565b600160a060020a038a16815288602082015287604082015260c0606082015260006200098560c08301888a6200092b565b82810360808401526200099a8187896200092b565b905082810360a0840152620009b18185876200092b565b9c9b505050505050505050505050565b6000600160a060020a03808d168352808c1660208401525060e06040830152620009f060e083018a8c6200092b565b828103606084015262000a0581898b6200092b565b90508660808401528560a084015282810360c084015262000a288185876200092b565b9d9c5050505050505050505050505056fe60806040526008805460ff191690553480156200001b57600080fd5b5060405162001362380380620013628339810160408190526200003e916200025a565b6008805461010060a860020a031916610100600160a060020a0389160217905560038590556200007784670de0b6b3a76400006200031f565b60045582516200008f906000906020860190620000ce565b508151620000a5906002906020850190620000ce565b508051620000bb906007906020840190620000ce565b5050600060095550620003bc9350505050565b828054620000dc9062000366565b90600052602060002090601f0160209004810192826200010057600085556200014b565b82601f106200011b57805160ff19168380011785556200014b565b828001600101855582156200014b579182015b828111156200014b5782518255916020019190600101906200012e565b50620001599291506200015d565b5090565b5b808211156200015957600081556001016200015e565b7f4e487b7100000000000000000000000000000000000000000000000000000000600052604160045260246000fd5b600082601f830112620001b557600080fd5b81516001604060020a0380821115620001d257620001d262000174565b604051601f8301601f19908116603f01168101908282118183101715620001fd57620001fd62000174565b816040528381526020925086838588010111156200021a57600080fd5b600091505b838210156200023e57858201830151818301840152908201906200021f565b83821115620002505760008385830101525b9695505050505050565b60008060008060008060c087890312156200027457600080fd5b8651600160a060020a03811681146200028c57600080fd5b80965050602087015194506040870151935060608701516001604060020a0380821115620002b957600080fd5b620002c78a838b01620001a3565b94506080890151915080821115620002de57600080fd5b620002ec8a838b01620001a3565b935060a08901519150808211156200030357600080fd5b506200031289828a01620001a3565b9150509295509295509295565b600081600019048311821515161562000361577f4e487b7100000000000000000000000000000000000000000000000000000000600052601160045260246000fd5b500290565b6002810460018216806200037b57607f821691505b60208210811415620003b6577f4e487b7100000000000000000000000000000000000000000000000000000000600052602260045260246000fd5b50919050565b610f9680620003cc6000396000f3fe608060405260043610610126576000357c01000000000000000000000000000000000000000000000000000000009004806397d75276116100b2578063b70f096511610081578063b70f0965146102a5578063ba1d92ed146102bb578063bbc1213a146102cf578063d7bb99ba146102f8578063dc79a7fc1461030057600080fd5b806397d75276146102295780639a33e3001461023e578063a4475ce414610253578063a91acb1a1461029057600080fd5b80633551295a116100f95780633551295a146101ad578063364ae02f146101c3578063747f3380146101d8578063748807ab146101ed578063755f047b1461021457600080fd5b8063031b36771461012b578063141b71691461016b578063184cba8a1461018257806329dcb0cf14610197575b600080fd5b34801561013757600080fd5b50610158610146366004610cf7565b600b6020526000908152604090205481565b6040519081526020015b60405180910390f35b34801561017757600080fd5b50610180610316565b005b61018a6104e2565b6040516101629190610d74565b3480156101a357600080fd5b5061015860035481565b3480156101b957600080fd5b5061015860045481565b3480156101cf57600080fd5b50600954610158565b3480156101e457600080fd5b5061018a61066b565b3480156101f957600080fd5b506008546102079060ff1681565b6040516101629190610da0565b34801561022057600080fd5b5061018a6106f9565b34801561023557600080fd5b5061018a610706565b34801561024a57600080fd5b5061018a610713565b34801561025f57600080fd5b50600854610278906101009004600160a060020a031681565b604051600160a060020a039091168152602001610162565b34801561029c57600080fd5b5061018a610720565b3480156102b157600080fd5b5061015860095481565b3480156102c757600080fd5b503031610158565b3480156102db57600080fd5b506102e461072d565b604051610162989796959493929190610dcb565b610180610a20565b34801561030c57600080fd5b5061015860015481565b60018060085460ff16600281111561033057610330610d87565b1461033a57600080fd5b6000600154116103ba5760405160e560020a62461bcd02815260206004820152602660248201527f4e6f206f6e652068617320636f6e747269627574656420746f2074686973207060448201527f726f6a656374000000000000000000000000000000000000000000000000000060648201526084015b60405180910390fd5b336000908152600b602052604090205461043f5760405160e560020a62461bcd02815260206004820152602860248201527f596f752068617665206e6f7420636f6e747269627574656420746f207468697360448201527f2070726f6a65637400000000000000000000000000000000000000000000000060648201526084016103b1565b336000818152600b602052604080822054905190929083908381818185875af1925050503d806000811461048f576040519150601f19603f3d011682016040523d82523d6000602084013e610494565b606091505b50509050806104b85760405160e560020a62461bcd0281526004016103b190610e4b565b336000908152600b6020526040812081905560018054916104d883610ec1565b9190505550505050565b60606004546009541061058a576008805460ff19166002179055610504610c78565b60085460095460408051610100909304600160a060020a0316835260208301919091527f3d4f2954b35d7e9289231c403908af4f5574e8d6173cf011c178b1be3cd5b62b910160405180910390a15060408051808201909152601181527f50726f6a6563742069732046756e646564000000000000000000000000000000602082015290565b60035442111561062f576008805460ff191660011790556105a9610c78565b60085460095460408051610100909304600160a060020a0316835260208301919091527f3d4f2954b35d7e9289231c403908af4f5574e8d6173cf011c178b1be3cd5b62b910160405180910390a15060408051808201909152601281527f50726f6a65637420697320457870697265640000000000000000000000000000602082015290565b5042600a5560408051808201909152601c81527f50726f6a656374206973207374696c6c20696e2070726f677265737300000000602082015290565b6007805461067890610ed8565b80601f01602080910402602001604051908101604052809291908181526020018280546106a490610ed8565b80156106f15780601f106106c6576101008083540402835291602001916106f1565b820191906000526020600020905b8154815290600101906020018083116106d457829003601f168201915b505050505081565b6002805461067890610ed8565b6006805461067890610ed8565b6000805461067890610ed8565b6005805461067890610ed8565b60085460035460045460008054610100909404600160a060020a03169360609182918291908290829061075f90610ed8565b80601f016020809104026020016040519081016040528092919081815260200182805461078b90610ed8565b80156107d85780601f106107ad576101008083540402835291602001916107d8565b820191906000526020600020905b8154815290600101906020018083116107bb57829003601f168201915b50505050509450600280546107ec90610ed8565b80601f016020809104026020016040519081016040528092919081815260200182805461081890610ed8565b80156108655780601f1061083a57610100808354040283529160200191610865565b820191906000526020600020905b81548152906001019060200180831161084857829003601f168201915b505050505093506007805461087990610ed8565b80601f01602080910402602001604051908101604052809291908181526020018280546108a590610ed8565b80156108f25780601f106108c7576101008083540402835291602001916108f2565b820191906000526020600020905b8154815290600101906020018083116108d557829003601f168201915b5050505050925060095491506000600281111561091157610911610d87565b60085460ff16600281111561092857610928610d87565b1415610968575060408051808201909152600b81527f46756e6472616973696e670000000000000000000000000000000000000000006020820152610a16565b600260085460ff16600281111561098157610981610d87565b14156109c1575060408051808201909152600681527f46756e64656400000000000000000000000000000000000000000000000000006020820152610a16565b600160085460ff1660028111156109da576109da610d87565b1415610a16575060408051808201909152600781527f457870697265640000000000000000000000000000000000000000000000000060208201525b9091929394959697565b60008060085460ff166002811115610a3a57610a3a610d87565b14610a4457600080fd5b60003411610abd5760405160e560020a62461bcd02815260206004820152602a60248201527f436f6e747269627574696f6e20616d6f756e74206d757374206265206772656160448201527f746572207468616e20300000000000000000000000000000000000000000000060648201526084016103b1565b6008546101009004600160a060020a0316331415610b465760405160e560020a62461bcd02815260206004820152602960248201527f596f752063616e6e6f7420636f6e7472696275746520746f20796f7572206f7760448201527f6e2070726f6a656374000000000000000000000000000000000000000000000060648201526084016103b1565b600954600454610b569190610f16565b341115610bce5760405160e560020a62461bcd02815260206004820152602b60248201527f416d6f756e74206973206d6f7265207468616e2074686520616d6f756e74207460448201527f6f2062652072616973656400000000000000000000000000000000000000000060648201526084016103b1565b336000908152600b6020526040902054610bf85760018054906000610bf283610f2d565b91905055505b336000908152600b6020526040902054610c13903490610f48565b336000908152600b6020526040902055600954610c31903490610f48565b60098190556040805133815234602082015280820192909252517f257d9cc0a432d57e4f44d33ecabb93aa1d42be21ba1bd0ff74425fb0c3977cd59181900360600190a150565b6008546040516000916101009004600160a060020a0316903031908381818185875af1925050503d8060008114610ccb576040519150601f19603f3d011682016040523d82523d6000602084013e610cd0565b606091505b5050905080610cf45760405160e560020a62461bcd0281526004016103b190610e4b565b50565b600060208284031215610d0957600080fd5b8135600160a060020a0381168114610d2057600080fd5b9392505050565b6000815180845260005b81811015610d4d57602081850181015186830182015201610d31565b81811115610d5f576000602083870101525b50601f01601f19169290920160200192915050565b602081526000610d206020830184610d27565b60e060020a634e487b7102600052602160045260246000fd5b6020810160038310610dc55760e060020a634e487b7102600052602160045260246000fd5b91905290565b6000610100600160a060020a038b168352896020840152886040840152806060840152610dfa81840189610d27565b90508281036080840152610e0e8188610d27565b905082810360a0840152610e228187610d27565b90508460c084015282810360e0840152610e3c8185610d27565b9b9a5050505050505050505050565b60208082526022908201527f5472616e73666572204661696c65642064756520746f20736f6d65207265617360408201527f6f6e000000000000000000000000000000000000000000000000000000000000606082015260800190565b60e060020a634e487b7102600052601160045260246000fd5b600081610ed057610ed0610ea8565b506000190190565b600281046001821680610eec57607f821691505b60208210811415610f105760e060020a634e487b7102600052602260045260246000fd5b50919050565b600082821015610f2857610f28610ea8565b500390565b6000600019821415610f4157610f41610ea8565b5060010190565b60008219821115610f5b57610f5b610ea8565b50019056fea2646970667358221220139130c17542baebf1bfeb342864654c67921cf0916f6ba0d9a0dfd0e13de54064736f6c63430008090033a2646970667358221220bd278253cdd25a23c9e7c8a27c0208f0f02a626b3cddabca093a8b52764c45e764736f6c63430008090033",
  "immutableReferences": {},
  "source": "// SPDX-License-Identifier: GPL-3.0\r\n\r\npragma solidity >=0.7.0 <0.9.0;\r\nimport \"./Project.sol\";\r\n\r\ncontract ProjectFactory {\r\n    Project[] public allProjects;\r\n    uint256 public numProjects;\r\n\r\n    function getAllTheProjects() public view returns (Project[] memory) {\r\n        return allProjects;\r\n    }\r\n\r\n    mapping(address => address) public projectOwners;\r\n    mapping(address => uint256) public numberOfProjectsPerOwner;\r\n\r\n    function getOwnerProjects(address _owner)\r\n        public\r\n        view\r\n        returns (address[] memory)\r\n    {\r\n        address[] memory result = new address[](\r\n            numberOfProjectsPerOwner[_owner]\r\n        );\r\n        uint256 j = 0;\r\n        for (uint256 i = 0; i < numProjects; i++) {\r\n            if (projectOwners[address(allProjects[i])] == _owner) {\r\n                result[j] = address(allProjects[i]);\r\n                j++;\r\n            }\r\n        }\r\n        return result;\r\n    }\r\n\r\n    function getNotOwnerProjects(address _owner)\r\n        public\r\n        view\r\n        returns (address[] memory)\r\n    {\r\n        address[] memory result = new address[](\r\n            numProjects - numberOfProjectsPerOwner[_owner]\r\n        );\r\n        uint256 j = 0;\r\n        for (uint256 i = 0; i < numProjects; i++) {\r\n            if (projectOwners[address(allProjects[i])] != _owner) {\r\n                result[j] = address(allProjects[i]);\r\n                j++;\r\n            }\r\n        }\r\n        return result;\r\n    }\r\n\r\n    event ProjectCreated(\r\n        address projectCreator,\r\n        address projectAddress,\r\n        string projectName,\r\n        string projectDescription,\r\n        uint256 projectDeadline,\r\n        uint256 projectAmountToBeRasied,\r\n        string phoneNumber\r\n    );\r\n\r\n    function createProject(\r\n        string calldata projectName,\r\n        string calldata projectDesciption,\r\n        uint256 duration,\r\n        uint256 amountToBeRaised,\r\n        string calldata phoneNumber\r\n    ) external {\r\n        uint256 deadline = block.timestamp + duration * 10 seconds;\r\n        Project proj = new Project(\r\n            msg.sender,\r\n            deadline,\r\n            amountToBeRaised,\r\n            projectName,\r\n            projectDesciption,\r\n            phoneNumber\r\n        );\r\n        allProjects.push(proj);\r\n        numProjects++;\r\n        projectOwners[address(proj)] = msg.sender;\r\n        numberOfProjectsPerOwner[msg.sender]++;\r\n        emit ProjectCreated(\r\n            msg.sender,\r\n            address(proj),\r\n            projectName,\r\n            projectDesciption,\r\n            deadline,\r\n            amountToBeRaised,\r\n            phoneNumber\r\n        );\r\n    }\r\n}\r\n",
  "sourcePath": "D:\\My projects\\DevProjs\\CRYPTO\\Hacknado\\frontend\\fundraiser\\contracts\\ProjectFactory.sol",
  "compiler": {
    "name": "solc",
    "version": "0.8.9+commit.e5eed63a.Emscripten.clang"
  },
  "schemaVersion": "3.4.3",
  "updatedAt": "2022-01-30T11:45:42.258Z",
  "networkType": "ethereum",
  "devdoc": {
    "kind": "dev",
    "methods": {},
    "version": 1
  },
  "userdoc": {
    "kind": "user",
    "methods": {},
    "version": 1
  }
}