{
  "contractName": "Project",
  "abi": [
    {
      "inputs": [
        {
          "internalType": "address",
          "name": "projectCreator",
          "type": "address"
        },
        {
          "internalType": "uint256",
          "name": "deadlineToTheEnd",
          "type": "uint256"
        },
        {
          "internalType": "uint256",
          "name": "amountToBeRasiedTillTheEnd",
          "type": "uint256"
        },
        {
          "internalType": "string",
          "name": "nameOfTheProject",
          "type": "string"
        },
        {
          "internalType": "string",
          "name": "desc",
          "type": "string"
        },
        {
          "internalType": "string",
          "name": "numberOfPhone",
          "type": "string"
        }
      ],
      "stateMutability": "nonpayable",
      "type": "constructor"
    },
    {
      "anonymous": false,
      "inputs": [
        {
          "indexed": false,
          "internalType": "address",
          "name": "_funders",
          "type": "address"
        },
        {
          "indexed": false,
          "internalType": "uint256",
          "name": "_amount",
          "type": "uint256"
        },
        {
          "indexed": false,
          "internalType": "uint256",
          "name": "totolAmount",
          "type": "uint256"
        }
      ],
      "name": "MoneyRecieved",
      "type": "event"
    },
    {
      "anonymous": false,
      "inputs": [
        {
          "indexed": false,
          "internalType": "address",
          "name": "_owner",
          "type": "address"
        },
        {
          "indexed": false,
          "internalType": "uint256",
          "name": "_totalAmount",
          "type": "uint256"
        }
      ],
      "name": "PayoutDone",
      "type": "event"
    },
    {
      "inputs": [],
      "name": "amountRaiseTillNow",
      "outputs": [
        {
          "internalType": "uint256",
          "name": "",
          "type": "uint256"
        }
      ],
      "stateMutability": "view",
      "type": "function"
    },
    {
      "inputs": [],
      "name": "amountToBeRasied",
      "outputs": [
        {
          "internalType": "uint256",
          "name": "",
          "type": "uint256"
        }
      ],
      "stateMutability": "view",
      "type": "function"
    },
    {
      "inputs": [],
      "name": "deadline",
      "outputs": [
        {
          "internalType": "uint256",
          "name": "",
          "type": "uint256"
        }
      ],
      "stateMutability": "view",
      "type": "function"
    },
    {
      "inputs": [
        {
          "internalType": "address",
          "name": "",
          "type": "address"
        }
      ],
      "name": "funders",
      "outputs": [
        {
          "internalType": "uint256",
          "name": "",
          "type": "uint256"
        }
      ],
      "stateMutability": "view",
      "type": "function"
    },
    {
      "inputs": [],
      "name": "moreProjectInfo",
      "outputs": [
        {
          "internalType": "string",
          "name": "",
          "type": "string"
        }
      ],
      "stateMutability": "view",
      "type": "function"
    },
    {
      "inputs": [],
      "name": "naturalCalamity",
      "outputs": [
        {
          "internalType": "string",
          "name": "",
          "type": "string"
        }
      ],
      "stateMutability": "view",
      "type": "function"
    },
    {
      "inputs": [],
      "name": "numberOfFunders",
      "outputs": [
        {
          "internalType": "uint256",
          "name": "",
          "type": "uint256"
        }
      ],
      "stateMutability": "view",
      "type": "function"
    },
    {
      "inputs": [],
      "name": "phoneNumber",
      "outputs": [
        {
          "internalType": "string",
          "name": "",
          "type": "string"
        }
      ],
      "stateMutability": "view",
      "type": "function"
    },
    {
      "inputs": [],
      "name": "projectDescription",
      "outputs": [
        {
          "internalType": "string",
          "name": "",
          "type": "string"
        }
      ],
      "stateMutability": "view",
      "type": "function"
    },
    {
      "inputs": [],
      "name": "projectName",
      "outputs": [
        {
          "internalType": "string",
          "name": "",
          "type": "string"
        }
      ],
      "stateMutability": "view",
      "type": "function"
    },
    {
      "inputs": [],
      "name": "projectOwner",
      "outputs": [
        {
          "internalType": "address",
          "name": "",
          "type": "address"
        }
      ],
      "stateMutability": "view",
      "type": "function"
    },
    {
      "inputs": [],
      "name": "projectState",
      "outputs": [
        {
          "internalType": "enum Project.State",
          "name": "",
          "type": "uint8"
        }
      ],
      "stateMutability": "view",
      "type": "function"
    },
    {
      "inputs": [],
      "name": "contribute",
      "outputs": [],
      "stateMutability": "payable",
      "type": "function"
    },
    {
      "inputs": [],
      "name": "checkTheStatusOfTheProject",
      "outputs": [
        {
          "internalType": "string",
          "name": "",
          "type": "string"
        }
      ],
      "stateMutability": "payable",
      "type": "function"
    },
    {
      "inputs": [],
      "name": "sendRefunds",
      "outputs": [],
      "stateMutability": "nonpayable",
      "type": "function"
    },
    {
      "inputs": [],
      "name": "getBalanceOfProject",
      "outputs": [
        {
          "internalType": "uint256",
          "name": "",
          "type": "uint256"
        }
      ],
      "stateMutability": "view",
      "type": "function"
    },
    {
      "inputs": [],
      "name": "sendDetails",
      "outputs": [
        {
          "internalType": "address",
          "name": "creator",
          "type": "address"
        },
        {
          "internalType": "uint256",
          "name": "timeLeft",
          "type": "uint256"
        },
        {
          "internalType": "uint256",
          "name": "fundRaiseAmount",
          "type": "uint256"
        },
        {
          "internalType": "string",
          "name": "nameOftheProj",
          "type": "string"
        },
        {
          "internalType": "string",
          "name": "descOfProj",
          "type": "string"
        },
        {
          "internalType": "string",
          "name": "cellNumber",
          "type": "string"
        },
        {
          "internalType": "uint256",
          "name": "amountRaised",
          "type": "uint256"
        },
        {
          "internalType": "string",
          "name": "stateOfTheProj",
          "type": "string"
        }
      ],
      "stateMutability": "view",
      "type": "function"
    },
    {
      "inputs": [],
      "name": "getTheMoneyFromTheVariable",
      "outputs": [
        {
          "internalType": "uint256",
          "name": "",
          "type": "uint256"
        }
      ],
      "stateMutability": "view",
      "type": "function"
    }
  ],
  "bytecode": "0x60806040526008805460ff191690553480156200001b57600080fd5b5060405162001362380380620013628339810160408190526200003e916200025a565b6008805461010060a860020a031916610100600160a060020a0389160217905560038590556200007784670de0b6b3a76400006200031f565b60045582516200008f906000906020860190620000ce565b508151620000a5906002906020850190620000ce565b508051620000bb906007906020840190620000ce565b5050600060095550620003bc9350505050565b828054620000dc9062000366565b90600052602060002090601f0160209004810192826200010057600085556200014b565b82601f106200011b57805160ff19168380011785556200014b565b828001600101855582156200014b579182015b828111156200014b5782518255916020019190600101906200012e565b50620001599291506200015d565b5090565b5b808211156200015957600081556001016200015e565b7f4e487b7100000000000000000000000000000000000000000000000000000000600052604160045260246000fd5b600082601f830112620001b557600080fd5b81516001604060020a0380821115620001d257620001d262000174565b604051601f8301601f19908116603f01168101908282118183101715620001fd57620001fd62000174565b816040528381526020925086838588010111156200021a57600080fd5b600091505b838210156200023e57858201830151818301840152908201906200021f565b83821115620002505760008385830101525b9695505050505050565b60008060008060008060c087890312156200027457600080fd5b8651600160a060020a03811681146200028c57600080fd5b80965050602087015194506040870151935060608701516001604060020a0380821115620002b957600080fd5b620002c78a838b01620001a3565b94506080890151915080821115620002de57600080fd5b620002ec8a838b01620001a3565b935060a08901519150808211156200030357600080fd5b506200031289828a01620001a3565b9150509295509295509295565b600081600019048311821515161562000361577f4e487b7100000000000000000000000000000000000000000000000000000000600052601160045260246000fd5b500290565b6002810460018216806200037b57607f821691505b60208210811415620003b6577f4e487b7100000000000000000000000000000000000000000000000000000000600052602260045260246000fd5b50919050565b610f9680620003cc6000396000f3fe608060405260043610610126576000357c01000000000000000000000000000000000000000000000000000000009004806397d75276116100b2578063b70f096511610081578063b70f0965146102a5578063ba1d92ed146102bb578063bbc1213a146102cf578063d7bb99ba146102f8578063dc79a7fc1461030057600080fd5b806397d75276146102295780639a33e3001461023e578063a4475ce414610253578063a91acb1a1461029057600080fd5b80633551295a116100f95780633551295a146101ad578063364ae02f146101c3578063747f3380146101d8578063748807ab146101ed578063755f047b1461021457600080fd5b8063031b36771461012b578063141b71691461016b578063184cba8a1461018257806329dcb0cf14610197575b600080fd5b34801561013757600080fd5b50610158610146366004610cf7565b600b6020526000908152604090205481565b6040519081526020015b60405180910390f35b34801561017757600080fd5b50610180610316565b005b61018a6104e2565b6040516101629190610d74565b3480156101a357600080fd5b5061015860035481565b3480156101b957600080fd5b5061015860045481565b3480156101cf57600080fd5b50600954610158565b3480156101e457600080fd5b5061018a61066b565b3480156101f957600080fd5b506008546102079060ff1681565b6040516101629190610da0565b34801561022057600080fd5b5061018a6106f9565b34801561023557600080fd5b5061018a610706565b34801561024a57600080fd5b5061018a610713565b34801561025f57600080fd5b50600854610278906101009004600160a060020a031681565b604051600160a060020a039091168152602001610162565b34801561029c57600080fd5b5061018a610720565b3480156102b157600080fd5b5061015860095481565b3480156102c757600080fd5b503031610158565b3480156102db57600080fd5b506102e461072d565b604051610162989796959493929190610dcb565b610180610a20565b34801561030c57600080fd5b5061015860015481565b60018060085460ff16600281111561033057610330610d87565b1461033a57600080fd5b6000600154116103ba5760405160e560020a62461bcd02815260206004820152602660248201527f4e6f206f6e652068617320636f6e747269627574656420746f2074686973207060448201527f726f6a656374000000000000000000000000000000000000000000000000000060648201526084015b60405180910390fd5b336000908152600b602052604090205461043f5760405160e560020a62461bcd02815260206004820152602860248201527f596f752068617665206e6f7420636f6e747269627574656420746f207468697360448201527f2070726f6a65637400000000000000000000000000000000000000000000000060648201526084016103b1565b336000818152600b602052604080822054905190929083908381818185875af1925050503d806000811461048f576040519150601f19603f3d011682016040523d82523d6000602084013e610494565b606091505b50509050806104b85760405160e560020a62461bcd0281526004016103b190610e4b565b336000908152600b6020526040812081905560018054916104d883610ec1565b9190505550505050565b60606004546009541061058a576008805460ff19166002179055610504610c78565b60085460095460408051610100909304600160a060020a0316835260208301919091527f3d4f2954b35d7e9289231c403908af4f5574e8d6173cf011c178b1be3cd5b62b910160405180910390a15060408051808201909152601181527f50726f6a6563742069732046756e646564000000000000000000000000000000602082015290565b60035442111561062f576008805460ff191660011790556105a9610c78565b60085460095460408051610100909304600160a060020a0316835260208301919091527f3d4f2954b35d7e9289231c403908af4f5574e8d6173cf011c178b1be3cd5b62b910160405180910390a15060408051808201909152601281527f50726f6a65637420697320457870697265640000000000000000000000000000602082015290565b5042600a5560408051808201909152601c81527f50726f6a656374206973207374696c6c20696e2070726f677265737300000000602082015290565b6007805461067890610ed8565b80601f01602080910402602001604051908101604052809291908181526020018280546106a490610ed8565b80156106f15780601f106106c6576101008083540402835291602001916106f1565b820191906000526020600020905b8154815290600101906020018083116106d457829003601f168201915b505050505081565b6002805461067890610ed8565b6006805461067890610ed8565b6000805461067890610ed8565b6005805461067890610ed8565b60085460035460045460008054610100909404600160a060020a03169360609182918291908290829061075f90610ed8565b80601f016020809104026020016040519081016040528092919081815260200182805461078b90610ed8565b80156107d85780601f106107ad576101008083540402835291602001916107d8565b820191906000526020600020905b8154815290600101906020018083116107bb57829003601f168201915b50505050509450600280546107ec90610ed8565b80601f016020809104026020016040519081016040528092919081815260200182805461081890610ed8565b80156108655780601f1061083a57610100808354040283529160200191610865565b820191906000526020600020905b81548152906001019060200180831161084857829003601f168201915b505050505093506007805461087990610ed8565b80601f01602080910402602001604051908101604052809291908181526020018280546108a590610ed8565b80156108f25780601f106108c7576101008083540402835291602001916108f2565b820191906000526020600020905b8154815290600101906020018083116108d557829003601f168201915b5050505050925060095491506000600281111561091157610911610d87565b60085460ff16600281111561092857610928610d87565b1415610968575060408051808201909152600b81527f46756e6472616973696e670000000000000000000000000000000000000000006020820152610a16565b600260085460ff16600281111561098157610981610d87565b14156109c1575060408051808201909152600681527f46756e64656400000000000000000000000000000000000000000000000000006020820152610a16565b600160085460ff1660028111156109da576109da610d87565b1415610a16575060408051808201909152600781527f457870697265640000000000000000000000000000000000000000000000000060208201525b9091929394959697565b60008060085460ff166002811115610a3a57610a3a610d87565b14610a4457600080fd5b60003411610abd5760405160e560020a62461bcd02815260206004820152602a60248201527f436f6e747269627574696f6e20616d6f756e74206d757374206265206772656160448201527f746572207468616e20300000000000000000000000000000000000000000000060648201526084016103b1565b6008546101009004600160a060020a0316331415610b465760405160e560020a62461bcd02815260206004820152602960248201527f596f752063616e6e6f7420636f6e7472696275746520746f20796f7572206f7760448201527f6e2070726f6a656374000000000000000000000000000000000000000000000060648201526084016103b1565b600954600454610b569190610f16565b341115610bce5760405160e560020a62461bcd02815260206004820152602b60248201527f416d6f756e74206973206d6f7265207468616e2074686520616d6f756e74207460448201527f6f2062652072616973656400000000000000000000000000000000000000000060648201526084016103b1565b336000908152600b6020526040902054610bf85760018054906000610bf283610f2d565b91905055505b336000908152600b6020526040902054610c13903490610f48565b336000908152600b6020526040902055600954610c31903490610f48565b60098190556040805133815234602082015280820192909252517f257d9cc0a432d57e4f44d33ecabb93aa1d42be21ba1bd0ff74425fb0c3977cd59181900360600190a150565b6008546040516000916101009004600160a060020a0316903031908381818185875af1925050503d8060008114610ccb576040519150601f19603f3d011682016040523d82523d6000602084013e610cd0565b606091505b5050905080610cf45760405160e560020a62461bcd0281526004016103b190610e4b565b50565b600060208284031215610d0957600080fd5b8135600160a060020a0381168114610d2057600080fd5b9392505050565b6000815180845260005b81811015610d4d57602081850181015186830182015201610d31565b81811115610d5f576000602083870101525b50601f01601f19169290920160200192915050565b602081526000610d206020830184610d27565b60e060020a634e487b7102600052602160045260246000fd5b6020810160038310610dc55760e060020a634e487b7102600052602160045260246000fd5b91905290565b6000610100600160a060020a038b168352896020840152886040840152806060840152610dfa81840189610d27565b90508281036080840152610e0e8188610d27565b905082810360a0840152610e228187610d27565b90508460c084015282810360e0840152610e3c8185610d27565b9b9a5050505050505050505050565b60208082526022908201527f5472616e73666572204661696c65642064756520746f20736f6d65207265617360408201527f6f6e000000000000000000000000000000000000000000000000000000000000606082015260800190565b60e060020a634e487b7102600052601160045260246000fd5b600081610ed057610ed0610ea8565b506000190190565b600281046001821680610eec57607f821691505b60208210811415610f105760e060020a634e487b7102600052602260045260246000fd5b50919050565b600082821015610f2857610f28610ea8565b500390565b6000600019821415610f4157610f41610ea8565b5060010190565b60008219821115610f5b57610f5b610ea8565b50019056fea2646970667358221220139130c17542baebf1bfeb342864654c67921cf0916f6ba0d9a0dfd0e13de54064736f6c63430008090033",
  "immutableReferences": {},
  "source": "// SPDX-License-Identifier: GPL-3.0\r\n\r\npragma solidity >=0.7.0 <0.9.0;\r\n\r\n/**\r\n * @title Ballot\r\n * @dev Implements voting process along with vote delegation\r\n */\r\ncontract Project {\r\n    // State of the project goes here -->\r\n    enum State {\r\n        Fundraising,\r\n        Expired,\r\n        Funded\r\n    }\r\n\r\n    struct ProjectInfo {\r\n        uint256 amountToBeRaised;\r\n        string projectName;\r\n        string projectDesciption;\r\n        string moreProjectInformation;\r\n        string naturalCalamity;\r\n        string phoneNumber;\r\n    }\r\n\r\n    //state variables\r\n    string public projectName;\r\n    uint256 public numberOfFunders;\r\n    string public projectDescription;\r\n    uint256 public deadline;\r\n    uint256 public amountToBeRasied;\r\n    string public moreProjectInfo;\r\n    string public naturalCalamity;\r\n    string public phoneNumber;\r\n    State public projectState = State.Fundraising;\r\n    address public projectOwner;\r\n    uint256 public amountRaiseTillNow;\r\n    uint256 lastChecked;\r\n    mapping(address => uint256) public funders;\r\n\r\n    //Events\r\n    event MoneyRecieved(address _funders, uint256 _amount, uint256 totolAmount);\r\n    event PayoutDone(address _owner, uint256 _totalAmount);\r\n\r\n    //Modifiers\r\n    modifier onlyOwner() {\r\n        require(msg.sender == projectOwner);\r\n        _;\r\n    }\r\n\r\n    modifier isState(State _state) {\r\n        require(projectState == _state);\r\n        _;\r\n    }\r\n\r\n    //Constructor\r\n\r\n    constructor(\r\n        address projectCreator,\r\n        uint256 deadlineToTheEnd,\r\n        uint256 amountToBeRasiedTillTheEnd,\r\n        string memory nameOfTheProject,\r\n        string memory desc,\r\n        string memory numberOfPhone\r\n    ) {\r\n        projectOwner = projectCreator;\r\n        deadline = deadlineToTheEnd;\r\n        amountToBeRasied = amountToBeRasiedTillTheEnd * 1 ether;\r\n        projectName = nameOfTheProject;\r\n        projectDescription = desc;\r\n\r\n        phoneNumber = numberOfPhone;\r\n        amountRaiseTillNow = 0;\r\n    }\r\n\r\n    //Functions\r\n    function contribute() external payable isState(State.Fundraising) {\r\n        require(msg.value > 0, \"Contribution amount must be greater than 0\");\r\n        require(\r\n            msg.sender != projectOwner,\r\n            \"You cannot contribute to your own project\"\r\n        );\r\n        require(\r\n            msg.value <= (amountToBeRasied - amountRaiseTillNow),\r\n            \"Amount is more than the amount to be raised\"\r\n        );\r\n        if (funders[msg.sender] <= 0) {\r\n            numberOfFunders++;\r\n        }\r\n        funders[msg.sender] = funders[msg.sender] + msg.value;\r\n\r\n        amountRaiseTillNow = amountRaiseTillNow + msg.value;\r\n        emit MoneyRecieved(msg.sender, msg.value, amountRaiseTillNow);\r\n    }\r\n\r\n    function checkTheStatusOfTheProject()\r\n        public\r\n        payable\r\n        returns (string memory)\r\n    {\r\n        if (amountRaiseTillNow >= amountToBeRasied) {\r\n            projectState = State.Funded;\r\n            endProject();\r\n            emit PayoutDone(projectOwner, amountRaiseTillNow);\r\n            return \"Project is Funded\";\r\n        } else if (block.timestamp > deadline) {\r\n            projectState = State.Expired;\r\n            endProject();\r\n            emit PayoutDone(projectOwner, amountRaiseTillNow);\r\n            return \"Project is Expired\";\r\n        }\r\n        lastChecked = block.timestamp;\r\n        return \"Project is still in progress\";\r\n    }\r\n\r\n    function endProject() internal  {\r\n        (bool success, ) = projectOwner.call{value: address(this).balance}(\"\");\r\n        require(success, \"Transfer Failed due to some reason\");\r\n    }\r\n\r\n    function sendRefunds() public isState(State.Expired) {\r\n        require(numberOfFunders > 0, \"No one has contributed to this project\");\r\n        require(\r\n            funders[msg.sender] > 0,\r\n            \"You have not contributed to this project\"\r\n        );\r\n\r\n        uint256 amountToBeGiven = funders[msg.sender];\r\n        (bool success, ) = msg.sender.call{value: amountToBeGiven}(\"\");\r\n        require(success, \"Transfer Failed due to some reason\");\r\n        funders[msg.sender] = 0;\r\n        numberOfFunders--;\r\n    }\r\n\r\n    // Getter\r\n    function getBalanceOfProject() external view returns (uint256) {\r\n        return address(this).balance;\r\n    }\r\n\r\n    function sendDetails()\r\n        public\r\n        view\r\n        returns (\r\n            address creator,\r\n            uint256 timeLeft,\r\n            uint256 fundRaiseAmount,\r\n            string memory nameOftheProj,\r\n            string memory descOfProj,\r\n            string memory cellNumber,\r\n            uint256 amountRaised,\r\n            string memory stateOfTheProj\r\n        )\r\n    {\r\n        creator = projectOwner;\r\n        timeLeft = deadline;\r\n        fundRaiseAmount = amountToBeRasied;\r\n        nameOftheProj = projectName;\r\n        descOfProj = projectDescription;\r\n        cellNumber = phoneNumber;\r\n        amountRaised = amountRaiseTillNow;\r\n        if (projectState == State.Fundraising) {\r\n            stateOfTheProj = \"Fundraising\";\r\n        } else if (projectState == State.Funded) {\r\n            stateOfTheProj = \"Funded\";\r\n        } else if (projectState == State.Expired) {\r\n            stateOfTheProj = \"Expired\";\r\n        }\r\n    }\r\n\r\n    function getTheMoneyFromTheVariable() external view returns (uint256) {\r\n        return amountRaiseTillNow;\r\n    }\r\n}\r\n",
  "sourcePath": "D:\\My projects\\DevProjs\\CRYPTO\\Hacknado\\frontend\\fundraiser\\contracts\\Project.sol",
  "compiler": {
    "name": "solc",
    "version": "0.8.9+commit.e5eed63a.Emscripten.clang"
  },
  "schemaVersion": "3.4.3",
  "updatedAt": "2022-01-30T11:45:39.312Z",
  "devdoc": {
    "details": "Implements voting process along with vote delegation",
    "kind": "dev",
    "methods": {},
    "title": "Ballot",
    "version": 1
  },
  "userdoc": {
    "kind": "user",
    "methods": {},
    "version": 1
  }
}