{
  "contractName": "test",
  "abi": [
    {
      "inputs": [
        {
          "internalType": "uint256",
          "name": "",
          "type": "uint256"
        }
      ],
      "name": "proj",
      "outputs": [
        {
          "internalType": "contract Project",
          "name": "",
          "type": "address"
        }
      ],
      "stateMutability": "view",
      "type": "function",
      "constant": true
    },
    {
      "inputs": [
        {
          "internalType": "string",
          "name": "name",
          "type": "string"
        }
      ],
      "name": "createNew",
      "outputs": [],
      "stateMutability": "nonpayable",
      "type": "function"
    }
  ],
  "bytecode": "0x608060405234801561001057600080fd5b5061072c806100206000396000f3fe608060405234801561001057600080fd5b5060043610610052577c01000000000000000000000000000000000000000000000000000000006000350463021b6eeb81146100575780637520767f14610093575b600080fd5b61006a61006536600461018d565b6100a8565b60405173ffffffffffffffffffffffffffffffffffffffff909116815260200160405180910390f35b6100a66100a13660046101d5565b6100df565b005b600081815481106100b857600080fd5b60009182526020909120015473ffffffffffffffffffffffffffffffffffffffff16905081565b6000816040516100ee90610180565b6100f89190610286565b604051809103906000f080158015610114573d6000803e3d6000fd5b50600080546001810182559080527f290decd9548b62a8d60345a988386fc84ba6bc95484008f6362f93160ef3e56301805473ffffffffffffffffffffffffffffffffffffffff191673ffffffffffffffffffffffffffffffffffffffff929092169190911790555050565b61041b806102dc83390190565b60006020828403121561019f57600080fd5b5035919050565b7f4e487b7100000000000000000000000000000000000000000000000000000000600052604160045260246000fd5b6000602082840312156101e757600080fd5b813567ffffffffffffffff808211156101ff57600080fd5b818401915084601f83011261021357600080fd5b813581811115610225576102256101a6565b604051601f8201601f19908116603f0116810190838211818310171561024d5761024d6101a6565b8160405282815287602084870101111561026657600080fd5b826020860160208301376000928101602001929092525095945050505050565b600060208083528351808285015260005b818110156102b357858101830151858201604001528201610297565b818111156102c5576000604083870101525b50601f01601f191692909201604001939250505056fe608060405234801561001057600080fd5b5060405161041b38038061041b83398101604081905261002f91610111565b8051610042906000906020840190610049565b5050610235565b828054610055906101e1565b90600052602060002090601f01602090048101928261007757600085556100bd565b82601f1061009057805160ff19168380011785556100bd565b828001600101855582156100bd579182015b828111156100bd5782518255916020019190600101906100a2565b506100c99291506100cd565b5090565b5b808211156100c957600081556001016100ce565b7f4e487b7100000000000000000000000000000000000000000000000000000000600052604160045260246000fd5b6000602080838503121561012457600080fd5b825167ffffffffffffffff8082111561013c57600080fd5b818501915085601f83011261015057600080fd5b815181811115610162576101626100e2565b604051601f8201601f19908116603f0116810190838211818310171561018a5761018a6100e2565b8160405282815288868487010111156101a257600080fd5b600093505b828410156101c457848401860151818501870152928501926101a7565b828411156101d55760008684830101525b98975050505050505050565b6002810460018216806101f557607f821691505b6020821081141561022f577f4e487b7100000000000000000000000000000000000000000000000000000000600052602260045260246000fd5b50919050565b6101d7806102446000396000f3fe608060405234801561001057600080fd5b5060043610610047577c0100000000000000000000000000000000000000000000000000000000600035046306fdde03811461004c575b600080fd5b61005461006a565b60405161006191906100f8565b60405180910390f35b600080546100779061014d565b80601f01602080910402602001604051908101604052809291908181526020018280546100a39061014d565b80156100f05780601f106100c5576101008083540402835291602001916100f0565b820191906000526020600020905b8154815290600101906020018083116100d357829003601f168201915b505050505081565b600060208083528351808285015260005b8181101561012557858101830151858201604001528201610109565b81811115610137576000604083870101525b50601f01601f1916929092016040019392505050565b60028104600182168061016157607f821691505b6020821081141561019b577f4e487b7100000000000000000000000000000000000000000000000000000000600052602260045260246000fd5b5091905056fea2646970667358221220f82cb1d352bd4dca23e2ba6a60f43c3764eb53bd8ede0f57acd122b6d0ba4a1f64736f6c63430008090033a26469706673582212206c230d304b012700961e509a1b0e5eac9928e49a6269f54eaccaca5ca631083664736f6c63430008090033",
  "immutableReferences": {},
  "source": "// SPDX-License-Identifier: GPL-3.0\r\n\r\npragma solidity >=0.7.0 <0.9.0;\r\n\r\ncontract test {\r\n\r\nProject[] public proj; \r\n\r\nfunction createNew(string memory name) external{\r\nProject pro = new Project(name);\r\nproj.push(pro);\r\n}\r\n\r\n    \r\n}\r\n\r\ncontract Project {\r\n    string public name;\r\n    constructor (string memory name1) {\r\n        name = name1;\r\n    }\r\n}",
  "sourcePath": "D:\\My projects\\DevProjs\\CRYPTO\\Hacknado\\frontend\\fundraiser\\contracts\\test.sol",
  "compiler": {
    "name": "solc",
    "version": "0.8.9+commit.e5eed63a.Emscripten.clang"
  },
  "schemaVersion": "3.4.3",
  "updatedAt": "2022-01-29T17:07:32.440Z",
  "networkType": "ethereum",
  "devdoc": {
    "kind": "dev",
    "methods": {},
    "version": 1
  },
  "userdoc": {
    "kind": "user",
    "methods": {},
    "version": 1
  }
}